{
  "contractName": "Voting",
  "abi": [
    {
      "inputs": [
        {
          "internalType": "string[]",
          "name": "proposalNames",
          "type": "string[]"
        }
      ],
      "stateMutability": "nonpayable",
      "type": "constructor"
    },
    {
      "inputs": [],
      "name": "owner",
      "outputs": [
        {
          "internalType": "address",
          "name": "",
          "type": "address"
        }
      ],
      "stateMutability": "view",
      "type": "function"
    },
    {
      "inputs": [
        {
          "internalType": "uint256",
          "name": "",
          "type": "uint256"
        }
      ],
      "name": "proposals",
      "outputs": [
        {
          "internalType": "string",
          "name": "name",
          "type": "string"
        },
        {
          "internalType": "uint256",
          "name": "voteCount",
          "type": "uint256"
        }
      ],
      "stateMutability": "view",
      "type": "function"
    },
    {
      "inputs": [
        {
          "internalType": "address",
          "name": "",
          "type": "address"
        }
      ],
      "name": "voters",
      "outputs": [
        {
          "internalType": "bool",
          "name": "",
          "type": "bool"
        }
      ],
      "stateMutability": "view",
      "type": "function"
    },
    {
      "inputs": [
        {
          "internalType": "address",
          "name": "voter",
          "type": "address"
        }
      ],
      "name": "giveRightToVote",
      "outputs": [],
      "stateMutability": "nonpayable",
      "type": "function"
    },
    {
      "inputs": [
        {
          "internalType": "uint256",
          "name": "proposal",
          "type": "uint256"
        }
      ],
      "name": "vote",
      "outputs": [],
      "stateMutability": "nonpayable",
      "type": "function"
    },
    {
      "inputs": [],
      "name": "winningProposal",
      "outputs": [
        {
          "internalType": "uint256",
          "name": "winningProposal_",
          "type": "uint256"
        }
      ],
      "stateMutability": "view",
      "type": "function"
    },
    {
      "inputs": [],
      "name": "winnerName",
      "outputs": [
        {
          "internalType": "string",
          "name": "winnerName_",
          "type": "string"
        }
      ],
      "stateMutability": "view",
      "type": "function"
    }
  ],
  "bytecode": "0x608060405234801562000010575f80fd5b50604051620012be380380620012be833981810160405281019062000036919062000398565b335f806101000a81548173ffffffffffffffffffffffffffffffffffffffff021916908373ffffffffffffffffffffffffffffffffffffffff1602179055505f5b8151811015620001135760026040518060400160405280848481518110620000a457620000a3620003e7565b5b602002602001015181526020015f815250908060018154018082558091505060019003905f5260205f2090600202015f909190919091505f820151815f019081620000f091906200064b565b5060208201518160010155505080806200010a906200075c565b91505062000077565b5050620007a8565b5f604051905090565b5f80fd5b5f80fd5b5f80fd5b5f601f19601f8301169050919050565b7f4e487b71000000000000000000000000000000000000000000000000000000005f52604160045260245ffd5b620001788262000130565b810181811067ffffffffffffffff821117156200019a576200019962000140565b5b80604052505050565b5f620001ae6200011b565b9050620001bc82826200016d565b919050565b5f67ffffffffffffffff821115620001de57620001dd62000140565b5b602082029050602081019050919050565b5f80fd5b5f80fd5b5f67ffffffffffffffff82111562000214576200021362000140565b5b6200021f8262000130565b9050602081019050919050565b5f5b838110156200024b5780820151818401526020810190506200022e565b5f8484015250505050565b5f6200026c6200026684620001f7565b620001a3565b9050828152602081018484840111156200028b576200028a620001f3565b5b620002988482856200022c565b509392505050565b5f82601f830112620002b757620002b66200012c565b5b8151620002c984826020860162000256565b91505092915050565b5f620002e8620002e284620001c1565b620001a3565b905080838252602082019050602084028301858111156200030e576200030d620001ef565b5b835b818110156200035c57805167ffffffffffffffff8111156200033757620003366200012c565b5b808601620003468982620002a0565b8552602085019450505060208101905062000310565b5050509392505050565b5f82601f8301126200037d576200037c6200012c565b5b81516200038f848260208601620002d2565b91505092915050565b5f60208284031215620003b057620003af62000124565b5b5f82015167ffffffffffffffff811115620003d057620003cf62000128565b5b620003de8482850162000366565b91505092915050565b7f4e487b71000000000000000000000000000000000000000000000000000000005f52603260045260245ffd5b5f81519050919050565b7f4e487b71000000000000000000000000000000000000000000000000000000005f52602260045260245ffd5b5f60028204905060018216806200046357607f821691505b6020821081036200047957620004786200041e565b5b50919050565b5f819050815f5260205f209050919050565b5f6020601f8301049050919050565b5f82821b905092915050565b5f60088302620004dd7fffffffffffffffffffffffffffffffffffffffffffffffffffffffffffffffff82620004a0565b620004e98683620004a0565b95508019841693508086168417925050509392505050565b5f819050919050565b5f819050919050565b5f620005336200052d620005278462000501565b6200050a565b62000501565b9050919050565b5f819050919050565b6200054e8362000513565b620005666200055d826200053a565b848454620004ac565b825550505050565b5f90565b6200057c6200056e565b6200058981848462000543565b505050565b5b81811015620005b057620005a45f8262000572565b6001810190506200058f565b5050565b601f821115620005ff57620005c9816200047f565b620005d48462000491565b81016020851015620005e4578190505b620005fc620005f38562000491565b8301826200058e565b50505b505050565b5f82821c905092915050565b5f620006215f198460080262000604565b1980831691505092915050565b5f6200063b838362000610565b9150826002028217905092915050565b620006568262000414565b67ffffffffffffffff81111562000672576200067162000140565b5b6200067e82546200044b565b6200068b828285620005b4565b5f60209050601f831160018114620006c1575f8415620006ac578287015190505b620006b885826200062e565b86555062000727565b601f198416620006d1866200047f565b5f5b82811015620006fa57848901518255600182019150602085019450602081019050620006d3565b868310156200071a578489015162000716601f89168262000610565b8355505b6001600288020188555050505b505050505050565b7f4e487b71000000000000000000000000000000000000000000000000000000005f52601160045260245ffd5b5f620007688262000501565b91507fffffffffffffffffffffffffffffffffffffffffffffffffffffffffffffffff82036200079d576200079c6200072f565b5b600182019050919050565b610b0880620007b65f395ff3fe608060405234801561000f575f80fd5b506004361061007b575f3560e01c80638da5cb5b116100595780638da5cb5b146100ea5780639e7b8d6114610108578063a3ec138d14610124578063e2ba53f0146101545761007b565b80630121b93f1461007f578063013cf08b1461009b578063609ff1bd146100cc575b5f80fd5b6100996004803603810190610094919061065e565b610172565b005b6100b560048036038101906100b0919061065e565b61028c565b6040516100c3929190610722565b60405180910390f35b6100d4610341565b6040516100e19190610750565b60405180910390f35b6100f26103c2565b6040516100ff91906107a8565b60405180910390f35b610122600480360381019061011d91906107eb565b6103e5565b005b61013e600480360381019061013991906107eb565b610553565b60405161014b9190610830565b60405180910390f35b61015c610570565b6040516101699190610849565b60405180910390f35b60015f3373ffffffffffffffffffffffffffffffffffffffff1673ffffffffffffffffffffffffffffffffffffffff1681526020019081526020015f205f9054906101000a900460ff166101fb576040517f08c379a00000000000000000000000000000000000000000000000000000000081526004016101f2906108b3565b60405180910390fd5b5f60015f3373ffffffffffffffffffffffffffffffffffffffff1673ffffffffffffffffffffffffffffffffffffffff1681526020019081526020015f205f6101000a81548160ff021916908315150217905550600160028281548110610265576102646108d1565b5b905f5260205f2090600202016001015f828254610282919061092b565b9250508190555050565b6002818154811061029b575f80fd5b905f5260205f2090600202015f91509050805f0180546102ba9061098b565b80601f01602080910402602001604051908101604052809291908181526020018280546102e69061098b565b80156103315780601f1061030857610100808354040283529160200191610331565b820191905f5260205f20905b81548152906001019060200180831161031457829003601f168201915b5050505050908060010154905082565b5f805f90505f5b6002805490508110156103bd57816002828154811061036a576103696108d1565b5b905f5260205f2090600202016001015411156103aa5760028181548110610394576103936108d1565b5b905f5260205f2090600202016001015491508092505b80806103b5906109bb565b915050610348565b505090565b5f8054906101000a900473ffffffffffffffffffffffffffffffffffffffff1681565b5f8054906101000a900473ffffffffffffffffffffffffffffffffffffffff1673ffffffffffffffffffffffffffffffffffffffff163373ffffffffffffffffffffffffffffffffffffffff1614610472576040517f08c379a000000000000000000000000000000000000000000000000000000000815260040161046990610a4c565b60405180910390fd5b60015f8273ffffffffffffffffffffffffffffffffffffffff1673ffffffffffffffffffffffffffffffffffffffff1681526020019081526020015f205f9054906101000a900460ff16156104fc576040517f08c379a00000000000000000000000000000000000000000000000000000000081526004016104f390610ab4565b60405180910390fd5b6001805f8373ffffffffffffffffffffffffffffffffffffffff1673ffffffffffffffffffffffffffffffffffffffff1681526020019081526020015f205f6101000a81548160ff02191690831515021790555050565b6001602052805f5260405f205f915054906101000a900460ff1681565b6060600261057c610341565b8154811061058d5761058c6108d1565b5b905f5260205f2090600202015f0180546105a69061098b565b80601f01602080910402602001604051908101604052809291908181526020018280546105d29061098b565b801561061d5780601f106105f45761010080835404028352916020019161061d565b820191905f5260205f20905b81548152906001019060200180831161060057829003601f168201915b5050505050905090565b5f80fd5b5f819050919050565b61063d8161062b565b8114610647575f80fd5b50565b5f8135905061065881610634565b92915050565b5f6020828403121561067357610672610627565b5b5f6106808482850161064a565b91505092915050565b5f81519050919050565b5f82825260208201905092915050565b5f5b838110156106c05780820151818401526020810190506106a5565b5f8484015250505050565b5f601f19601f8301169050919050565b5f6106e582610689565b6106ef8185610693565b93506106ff8185602086016106a3565b610708816106cb565b840191505092915050565b61071c8161062b565b82525050565b5f6040820190508181035f83015261073a81856106db565b90506107496020830184610713565b9392505050565b5f6020820190506107635f830184610713565b92915050565b5f73ffffffffffffffffffffffffffffffffffffffff82169050919050565b5f61079282610769565b9050919050565b6107a281610788565b82525050565b5f6020820190506107bb5f830184610799565b92915050565b6107ca81610788565b81146107d4575f80fd5b50565b5f813590506107e5816107c1565b92915050565b5f60208284031215610800576107ff610627565b5b5f61080d848285016107d7565b91505092915050565b5f8115159050919050565b61082a81610816565b82525050565b5f6020820190506108435f830184610821565b92915050565b5f6020820190508181035f83015261086181846106db565b905092915050565b7f486173206e6f20726967687420746f20766f74650000000000000000000000005f82015250565b5f61089d601483610693565b91506108a882610869565b602082019050919050565b5f6020820190508181035f8301526108ca81610891565b9050919050565b7f4e487b71000000000000000000000000000000000000000000000000000000005f52603260045260245ffd5b7f4e487b71000000000000000000000000000000000000000000000000000000005f52601160045260245ffd5b5f6109358261062b565b91506109408361062b565b9250828201905080821115610958576109576108fe565b5b92915050565b7f4e487b71000000000000000000000000000000000000000000000000000000005f52602260045260245ffd5b5f60028204905060018216806109a257607f821691505b6020821081036109b5576109b461095e565b5b50919050565b5f6109c58261062b565b91507fffffffffffffffffffffffffffffffffffffffffffffffffffffffffffffffff82036109f7576109f66108fe565b5b600182019050919050565b7f4e6f7420617574686f72697a65640000000000000000000000000000000000005f82015250565b5f610a36600e83610693565b9150610a4182610a02565b602082019050919050565b5f6020820190508181035f830152610a6381610a2a565b9050919050565b7f566f74657220616c726561647920676976656e207269676874000000000000005f82015250565b5f610a9e601983610693565b9150610aa982610a6a565b602082019050919050565b5f6020820190508181035f830152610acb81610a92565b905091905056fea264697066735822122056dab78c7f102e7256057e7ee00531550da99c9935dcd37e0b2271303902b63164736f6c63430008150033",
  "immutableReferences": {},
  "source": "// SPDX-License-Identifier: MIT\n\npragma solidity ^ 0.8.0;\n\ncontract Voting {\n  struct Proposal {\n    string name;\n    uint voteCount;\n  }\n\n  address public owner;\n  mapping(address => bool) public voters;\n  Proposal[] public proposals;\n\n  modifier onlyOwner() {\n    require(msg.sender == owner, \"Not authorized\");\n    _;\n  }\n\n  constructor(string[] memory proposalNames) {\n    owner = msg.sender;\n    for (uint i = 0; i < proposalNames.length; i++) {\n      proposals.push(Proposal({name : proposalNames[i], voteCount : 0}));\n    }\n  }\n\n  function giveRightToVote(address voter) public onlyOwner {\n    require(!voters[voter], \"Voter already given right\");\n    voters[voter] = true;\n  }\n\n  function vote(uint proposal) public {\n    require(voters[msg.sender], \"Has no right to vote\");\n    voters[msg.sender] = false;\n    proposals[proposal].voteCount += 1;\n  }\n\n  function winningProposal() public view returns(uint winningProposal_) {\n    uint winningVoteCount = 0;\n    for (uint p = 0; p < proposals.length; p++) {\n      if (proposals[p].voteCount > winningVoteCount) {\n        winningVoteCount = proposals[p].voteCount;\n        winningProposal_ = p;\n      }\n    }\n  }\n\n  function winnerName() public view returns(string memory winnerName_) {\n    winnerName_ = proposals[winningProposal()].name;\n  }\n}\n",
  "sourcePath": "/home/lelouch/org/projects/decentralized-voting-system/contracts/Voting.sol",
  "compiler": {
    "name": "solc",
    "version": "0.8.21+commit.d9974bed.Emscripten.clang"
  },
  "schemaVersion": "3.4.16",
  "updatedAt": "2024-06-11T05:48:20.121Z",
  "devdoc": {
    "kind": "dev",
    "methods": {},
    "version": 1
  },
  "userdoc": {
    "kind": "user",
    "methods": {},
    "version": 1
  }
}